:1000000071C0000079C0000077C0000075C000001A
:1000100073C0000071C000006FC000006DC0000020
:100020006BC0000069C0000067C0000065C0000030
:1000300063C0000061C000005FC000005DC0000040
:100040005BC0000059C0000057C0000055C0000050
:1000500053C0000051C000004FC000004DC0000060
:100060004BC0000049C0000047C0000045C0000070
:1000700043C0000041C000003FC000003DC0000080
:100080003BC0000039C0000037C0000035C0000090
:1000900033C0000031C000002FC000002DC00000A0
:1000A0002BC0000029C0000027C0000025C00000B0
:1000B00023C0000021C000001FC000001DC00000C0
:1000C0001BC0000019C0000017C0000015C00000D0
:1000D00013C0000011C000000FC000000DC00000E0
:1000E0000BC0000011241FBECFEFD1E2DEBFCDBF99
:1000F00000E00CBFEBD05BC183CF92B988B95F98A9
:10010000A198A2980000A29A0000089592B988B917
:100110005F9AA198A2980000A29A0000089582E236
:1001200090E0EBCF089583E290E0E7CF089588E276
:1001300090E0E3CF089589E290E0DFCF089581E178
:1001400090E0DBCF0895CF93C82F86E390E0D5DF12
:100150008C2F90E0DBDFCF910895CF93C82F8AE3F7
:1001600090E0CBDF8C2F90E0D1DFCF91089583B367
:10017000876083BB579A8FEF81B987B984B3876053
:1001800084BB5F9AA0982FEF89E698E121508040C8
:100190009040E1F700C00000A09A2FEF81EE94E0BC
:1001A000215080409040E1F700C00000C8DFC3DF6D
:1001B00088E0C9DF85E0D1CF08958CE290E09DCF43
:1001C000089590E2699FB0011124642B90E0982F6C
:1001D0008827990F990F990F862B972B97CF089502
:1001E0000F931F93CF93DF93082FD92F162FC72F6D
:1001F0008AE290E082DF8D2F90E088DF802F9D2FB4
:1002000085DF8C2F90E082DF812F9C2F7FDFDF91B5
:10021000CF911F910F9108950F931F93CF93DF9369
:10022000082FD92F162FC72F8BE290E066DF8D2F76
:1002300090E06CDF802F9D2F69DF8C2F90E066DFD0
:10024000812F9C2F63DFDF91CF911F910F91089534
:100250004F925F926F927F928F929F92AF92BF92D6
:10026000CF92EF920F933B014A015901BC01640FF9
:10027000751FD2DFB3016A0D7B1DC301B1DF9DDFA6
:100280009401D50185D02B013C01672B682B692B8C
:1002900089F0812C912C54014C2D6E2D802F91DFF3
:1002A0008FEF881A980AA80AB80A84149504A6043D
:1002B000B70491F70F91EF90CF90BF90AF909F90C0
:1002C0008F907F906F905F904F90089550DF27DF61
:1002D0002FEF83ED90E3215080409040E1F700C084
:1002E000000021DF2FEF83ED90E32150804090400C
:1002F000E1F700C000000F2EFFE1CF2EF02D0F2EF2
:10030000FFE3EF2EF02D0FE120EF30E040E451E06D
:1003100060E070E080E090E09BDFC12CE12C24E6FF
:1003200030E044E650E06CE870E080E090E090DF80
:1003300024E630E044E650E060E070E080E090E0E9
:1003400087DF24E630E044EB50E060E070E08CE8CA
:1003500090E07EDF24E630E044EB50E06CE870E0B3
:100360008CE890E075DFE7DE2FEF83ED90E321501E
:1003700080409040E1F700C00000D9DE2FEF83ED10
:1003800090E3215080409040E1F700C00000EBCFA7
:10039000A29FB001B39FC001A39F700D811D1124C6
:1003A000911DB29F700D811D1124911D0895F89427
:0203B000FFCF7D
:00000001FF
